{
  "_format": "hh-sol-artifact-1",
  "contractName": "UPXToken",
  "sourceName": "contracts/UPXToken.sol",
  "abi": [
    {
      "inputs": [],
      "stateMutability": "nonpayable",
      "type": "constructor"
    },
    {
      "inputs": [],
      "name": "ECDSAInvalidSignature",
      "type": "error"
    },
    {
      "inputs": [
        {
          "internalType": "uint256",
          "name": "length",
          "type": "uint256"
        }
      ],
      "name": "ECDSAInvalidSignatureLength",
      "type": "error"
    },
    {
      "inputs": [
        {
          "internalType": "bytes32",
          "name": "s",
          "type": "bytes32"
        }
      ],
      "name": "ECDSAInvalidSignatureS",
      "type": "error"
    },
    {
      "inputs": [
        {
          "internalType": "address",
          "name": "spender",
          "type": "address"
        },
        {
          "internalType": "uint256",
          "name": "allowance",
          "type": "uint256"
        },
        {
          "internalType": "uint256",
          "name": "needed",
          "type": "uint256"
        }
      ],
      "name": "ERC20InsufficientAllowance",
      "type": "error"
    },
    {
      "inputs": [
        {
          "internalType": "address",
          "name": "sender",
          "type": "address"
        },
        {
          "internalType": "uint256",
          "name": "balance",
          "type": "uint256"
        },
        {
          "internalType": "uint256",
          "name": "needed",
          "type": "uint256"
        }
      ],
      "name": "ERC20InsufficientBalance",
      "type": "error"
    },
    {
      "inputs": [
        {
          "internalType": "address",
          "name": "approver",
          "type": "address"
        }
      ],
      "name": "ERC20InvalidApprover",
      "type": "error"
    },
    {
      "inputs": [
        {
          "internalType": "address",
          "name": "receiver",
          "type": "address"
        }
      ],
      "name": "ERC20InvalidReceiver",
      "type": "error"
    },
    {
      "inputs": [
        {
          "internalType": "address",
          "name": "sender",
          "type": "address"
        }
      ],
      "name": "ERC20InvalidSender",
      "type": "error"
    },
    {
      "inputs": [
        {
          "internalType": "address",
          "name": "spender",
          "type": "address"
        }
      ],
      "name": "ERC20InvalidSpender",
      "type": "error"
    },
    {
      "inputs": [
        {
          "internalType": "uint256",
          "name": "deadline",
          "type": "uint256"
        }
      ],
      "name": "ERC2612ExpiredSignature",
      "type": "error"
    },
    {
      "inputs": [
        {
          "internalType": "address",
          "name": "signer",
          "type": "address"
        },
        {
          "internalType": "address",
          "name": "owner",
          "type": "address"
        }
      ],
      "name": "ERC2612InvalidSigner",
      "type": "error"
    },
    {
      "inputs": [],
      "name": "EnforcedPause",
      "type": "error"
    },
    {
      "inputs": [],
      "name": "ExpectedPause",
      "type": "error"
    },
    {
      "inputs": [
        {
          "internalType": "address",
          "name": "account",
          "type": "address"
        },
        {
          "internalType": "uint256",
          "name": "currentNonce",
          "type": "uint256"
        }
      ],
      "name": "InvalidAccountNonce",
      "type": "error"
    },
    {
      "inputs": [],
      "name": "InvalidShortString",
      "type": "error"
    },
    {
      "inputs": [
        {
          "internalType": "address",
          "name": "owner",
          "type": "address"
        }
      ],
      "name": "OwnableInvalidOwner",
      "type": "error"
    },
    {
      "inputs": [
        {
          "internalType": "address",
          "name": "account",
          "type": "address"
        }
      ],
      "name": "OwnableUnauthorizedAccount",
      "type": "error"
    },
    {
      "inputs": [
        {
          "internalType": "string",
          "name": "str",
          "type": "string"
        }
      ],
      "name": "StringTooLong",
      "type": "error"
    },
    {
      "anonymous": false,
      "inputs": [
        {
          "indexed": true,
          "internalType": "address",
          "name": "owner",
          "type": "address"
        },
        {
          "indexed": true,
          "internalType": "address",
          "name": "spender",
          "type": "address"
        },
        {
          "indexed": false,
          "internalType": "uint256",
          "name": "value",
          "type": "uint256"
        }
      ],
      "name": "Approval",
      "type": "event"
    },
    {
      "anonymous": false,
      "inputs": [],
      "name": "EIP712DomainChanged",
      "type": "event"
    },
    {
      "anonymous": false,
      "inputs": [
        {
          "indexed": true,
          "internalType": "address",
          "name": "previousOwner",
          "type": "address"
        },
        {
          "indexed": true,
          "internalType": "address",
          "name": "newOwner",
          "type": "address"
        }
      ],
      "name": "OwnershipTransferred",
      "type": "event"
    },
    {
      "anonymous": false,
      "inputs": [
        {
          "indexed": false,
          "internalType": "address",
          "name": "account",
          "type": "address"
        }
      ],
      "name": "Paused",
      "type": "event"
    },
    {
      "anonymous": false,
      "inputs": [
        {
          "indexed": true,
          "internalType": "address",
          "name": "from",
          "type": "address"
        },
        {
          "indexed": false,
          "internalType": "uint256",
          "name": "amount",
          "type": "uint256"
        }
      ],
      "name": "TokensBurned",
      "type": "event"
    },
    {
      "anonymous": false,
      "inputs": [
        {
          "indexed": true,
          "internalType": "address",
          "name": "to",
          "type": "address"
        },
        {
          "indexed": false,
          "internalType": "uint256",
          "name": "amount",
          "type": "uint256"
        }
      ],
      "name": "TokensMinted",
      "type": "event"
    },
    {
      "anonymous": false,
      "inputs": [
        {
          "indexed": true,
          "internalType": "address",
          "name": "from",
          "type": "address"
        },
        {
          "indexed": true,
          "internalType": "address",
          "name": "to",
          "type": "address"
        },
        {
          "indexed": false,
          "internalType": "uint256",
          "name": "value",
          "type": "uint256"
        }
      ],
      "name": "Transfer",
      "type": "event"
    },
    {
      "anonymous": false,
      "inputs": [
        {
          "indexed": false,
          "internalType": "address",
          "name": "account",
          "type": "address"
        }
      ],
      "name": "Unpaused",
      "type": "event"
    },
    {
      "inputs": [],
      "name": "DOMAIN_SEPARATOR",
      "outputs": [
        {
          "internalType": "bytes32",
          "name": "",
          "type": "bytes32"
        }
      ],
      "stateMutability": "view",
      "type": "function"
    },
    {
      "inputs": [],
      "name": "INITIAL_SUPPLY",
      "outputs": [
        {
          "internalType": "uint256",
          "name": "",
          "type": "uint256"
        }
      ],
      "stateMutability": "view",
      "type": "function"
    },
    {
      "inputs": [],
      "name": "MAX_SUPPLY",
      "outputs": [
        {
          "internalType": "uint256",
          "name": "",
          "type": "uint256"
        }
      ],
      "stateMutability": "view",
      "type": "function"
    },
    {
      "inputs": [
        {
          "internalType": "address",
          "name": "owner",
          "type": "address"
        },
        {
          "internalType": "address",
          "name": "spender",
          "type": "address"
        }
      ],
      "name": "allowance",
      "outputs": [
        {
          "internalType": "uint256",
          "name": "",
          "type": "uint256"
        }
      ],
      "stateMutability": "view",
      "type": "function"
    },
    {
      "inputs": [
        {
          "internalType": "address",
          "name": "spender",
          "type": "address"
        },
        {
          "internalType": "uint256",
          "name": "value",
          "type": "uint256"
        }
      ],
      "name": "approve",
      "outputs": [
        {
          "internalType": "bool",
          "name": "",
          "type": "bool"
        }
      ],
      "stateMutability": "nonpayable",
      "type": "function"
    },
    {
      "inputs": [
        {
          "internalType": "address",
          "name": "account",
          "type": "address"
        }
      ],
      "name": "balanceOf",
      "outputs": [
        {
          "internalType": "uint256",
          "name": "",
          "type": "uint256"
        }
      ],
      "stateMutability": "view",
      "type": "function"
    },
    {
      "inputs": [
        {
          "internalType": "uint256",
          "name": "amount",
          "type": "uint256"
        }
      ],
      "name": "burn",
      "outputs": [],
      "stateMutability": "nonpayable",
      "type": "function"
    },
    {
      "inputs": [
        {
          "internalType": "address",
          "name": "account",
          "type": "address"
        },
        {
          "internalType": "uint256",
          "name": "value",
          "type": "uint256"
        }
      ],
      "name": "burnFrom",
      "outputs": [],
      "stateMutability": "nonpayable",
      "type": "function"
    },
    {
      "inputs": [],
      "name": "decimals",
      "outputs": [
        {
          "internalType": "uint8",
          "name": "",
          "type": "uint8"
        }
      ],
      "stateMutability": "view",
      "type": "function"
    },
    {
      "inputs": [],
      "name": "eip712Domain",
      "outputs": [
        {
          "internalType": "bytes1",
          "name": "fields",
          "type": "bytes1"
        },
        {
          "internalType": "string",
          "name": "name",
          "type": "string"
        },
        {
          "internalType": "string",
          "name": "version",
          "type": "string"
        },
        {
          "internalType": "uint256",
          "name": "chainId",
          "type": "uint256"
        },
        {
          "internalType": "address",
          "name": "verifyingContract",
          "type": "address"
        },
        {
          "internalType": "bytes32",
          "name": "salt",
          "type": "bytes32"
        },
        {
          "internalType": "uint256[]",
          "name": "extensions",
          "type": "uint256[]"
        }
      ],
      "stateMutability": "view",
      "type": "function"
    },
    {
      "inputs": [
        {
          "internalType": "address",
          "name": "to",
          "type": "address"
        },
        {
          "internalType": "uint256",
          "name": "amount",
          "type": "uint256"
        }
      ],
      "name": "mint",
      "outputs": [],
      "stateMutability": "nonpayable",
      "type": "function"
    },
    {
      "inputs": [],
      "name": "mintableSupply",
      "outputs": [
        {
          "internalType": "uint256",
          "name": "",
          "type": "uint256"
        }
      ],
      "stateMutability": "view",
      "type": "function"
    },
    {
      "inputs": [],
      "name": "name",
      "outputs": [
        {
          "internalType": "string",
          "name": "",
          "type": "string"
        }
      ],
      "stateMutability": "view",
      "type": "function"
    },
    {
      "inputs": [
        {
          "internalType": "address",
          "name": "owner",
          "type": "address"
        }
      ],
      "name": "nonces",
      "outputs": [
        {
          "internalType": "uint256",
          "name": "",
          "type": "uint256"
        }
      ],
      "stateMutability": "view",
      "type": "function"
    },
    {
      "inputs": [],
      "name": "owner",
      "outputs": [
        {
          "internalType": "address",
          "name": "",
          "type": "address"
        }
      ],
      "stateMutability": "view",
      "type": "function"
    },
    {
      "inputs": [],
      "name": "pause",
      "outputs": [],
      "stateMutability": "nonpayable",
      "type": "function"
    },
    {
      "inputs": [],
      "name": "paused",
      "outputs": [
        {
          "internalType": "bool",
          "name": "",
          "type": "bool"
        }
      ],
      "stateMutability": "view",
      "type": "function"
    },
    {
      "inputs": [
        {
          "internalType": "address",
          "name": "owner",
          "type": "address"
        },
        {
          "internalType": "address",
          "name": "spender",
          "type": "address"
        },
        {
          "internalType": "uint256",
          "name": "value",
          "type": "uint256"
        },
        {
          "internalType": "uint256",
          "name": "deadline",
          "type": "uint256"
        },
        {
          "internalType": "uint8",
          "name": "v",
          "type": "uint8"
        },
        {
          "internalType": "bytes32",
          "name": "r",
          "type": "bytes32"
        },
        {
          "internalType": "bytes32",
          "name": "s",
          "type": "bytes32"
        }
      ],
      "name": "permit",
      "outputs": [],
      "stateMutability": "nonpayable",
      "type": "function"
    },
    {
      "inputs": [],
      "name": "renounceOwnership",
      "outputs": [],
      "stateMutability": "nonpayable",
      "type": "function"
    },
    {
      "inputs": [],
      "name": "symbol",
      "outputs": [
        {
          "internalType": "string",
          "name": "",
          "type": "string"
        }
      ],
      "stateMutability": "view",
      "type": "function"
    },
    {
      "inputs": [],
      "name": "totalSupply",
      "outputs": [
        {
          "internalType": "uint256",
          "name": "",
          "type": "uint256"
        }
      ],
      "stateMutability": "view",
      "type": "function"
    },
    {
      "inputs": [
        {
          "internalType": "address",
          "name": "to",
          "type": "address"
        },
        {
          "internalType": "uint256",
          "name": "value",
          "type": "uint256"
        }
      ],
      "name": "transfer",
      "outputs": [
        {
          "internalType": "bool",
          "name": "",
          "type": "bool"
        }
      ],
      "stateMutability": "nonpayable",
      "type": "function"
    },
    {
      "inputs": [
        {
          "internalType": "address",
          "name": "from",
          "type": "address"
        },
        {
          "internalType": "address",
          "name": "to",
          "type": "address"
        },
        {
          "internalType": "uint256",
          "name": "value",
          "type": "uint256"
        }
      ],
      "name": "transferFrom",
      "outputs": [
        {
          "internalType": "bool",
          "name": "",
          "type": "bool"
        }
      ],
      "stateMutability": "nonpayable",
      "type": "function"
    },
    {
      "inputs": [
        {
          "internalType": "address",
          "name": "newOwner",
          "type": "address"
        }
      ],
      "name": "transferOwnership",
      "outputs": [],
      "stateMutability": "nonpayable",
      "type": "function"
    },
    {
      "inputs": [],
      "name": "unpause",
      "outputs": [],
      "stateMutability": "nonpayable",
      "type": "function"
    }
  ],
  "bytecode": "0x6101606040523480156200001257600080fd5b506040518060400160405280600e81526020016d2ab734ba3ca830bc902a37b5b2b760911b81525080604051806040016040528060018152602001603160f81b815250336040518060400160405280600e81526020016d2ab734ba3ca830bc902a37b5b2b760911b815250604051806040016040528060038152602001620aaa0b60eb1b8152508160039081620000aa919062000506565b506004620000b9828262000506565b5050506001600160a01b038116620000ec57604051631e4fbdf760e01b8152600060048201526024015b60405180910390fd5b620000f781620001cb565b506200010582600662000225565b610120526200011681600762000225565b61014052815160208084019190912060e052815190820120610100524660a052620001a460e05161010051604080517f8b73c3c69bb8fe3d512ecc4cf759cc79239f7b179b0ffacaa9a75d522b39400f60208201529081019290925260608201524660808201523060a082015260009060c00160405160208183030381529060405280519060200120905090565b60805250503060c05250620001c5336a52b7d2dcc80cd2e40000006200025e565b62000669565b600580546001600160a01b03838116610100818102610100600160a81b031985161790945560405193909204169182907f8be0079c531659141344cd1fd0a4f28419497f9722a3daafe3b4186f6b6457e090600090a35050565b600060208351101562000245576200023d836200029c565b905062000258565b8162000252848262000506565b5060ff90505b92915050565b6001600160a01b0382166200028a5760405163ec442f0560e01b815260006004820152602401620000e3565b6200029860008383620002df565b5050565b600080829050601f81511115620002ca578260405163305a27a960e01b8152600401620000e39190620005d2565b8051620002d78262000622565b179392505050565b620002ec838383620002f1565b505050565b620002fb62000308565b620002ec8383836200032f565b60055460ff16156200032d5760405163d93c066560e01b815260040160405180910390fd5b565b6001600160a01b0383166200035e57806002600082825462000352919062000647565b90915550620003d29050565b6001600160a01b03831660009081526020819052604090205481811015620003b35760405163391434e360e21b81526001600160a01b03851660048201526024810182905260448101839052606401620000e3565b6001600160a01b03841660009081526020819052604090209082900390555b6001600160a01b038216620003f0576002805482900390556200040f565b6001600160a01b03821660009081526020819052604090208054820190555b816001600160a01b0316836001600160a01b03167fddf252ad1be2c89b69c2b068fc378daa952ba7f163c4a11628f55a4df523b3ef836040516200045591815260200190565b60405180910390a3505050565b634e487b7160e01b600052604160045260246000fd5b600181811c908216806200048d57607f821691505b602082108103620004ae57634e487b7160e01b600052602260045260246000fd5b50919050565b601f821115620002ec57600081815260208120601f850160051c81016020861015620004dd5750805b601f850160051c820191505b81811015620004fe57828155600101620004e9565b505050505050565b81516001600160401b0381111562000522576200052262000462565b6200053a8162000533845462000478565b84620004b4565b602080601f831160018114620005725760008415620005595750858301515b600019600386901b1c1916600185901b178555620004fe565b600085815260208120601f198616915b82811015620005a35788860151825594840194600190910190840162000582565b5085821015620005c25787850151600019600388901b60f8161c191681555b5050505050600190811b01905550565b600060208083528351808285015260005b818110156200060157858101830151858201604001528201620005e3565b506000604082860101526040601f19601f8301168501019250505092915050565b80516020808301519190811015620004ae5760001960209190910360031b1b16919050565b808201808211156200025857634e487b7160e01b600052601160045260246000fd5b60805160a05160c05160e051610100516101205161014051611442620006c46000396000610baf01526000610b820152600061099801526000610970015260006108cb015260006108f50152600061091f01526114426000f3fe608060405234801561001057600080fd5b50600436106101735760003560e01c806370a08231116100de5780638da5cb5b11610097578063cc5c095c11610071578063cc5c095c14610313578063d505accf1461031b578063dd62ed3e1461032e578063f2fde38b1461036757600080fd5b80638da5cb5b146102cf57806395d89b41146102f8578063a9059cbb1461030057600080fd5b806370a0823114610255578063715018a61461027e57806379cc6790146102865780637ecebe00146102995780638456cb59146102ac57806384b0196e146102b457600080fd5b806332cb6b0c1161013057806332cb6b0c146101ff5780633644e515146102125780633f4ba83a1461021a57806340c10f191461022457806342966c68146102375780635c975abb1461024a57600080fd5b806306fdde0314610178578063095ea7b31461019657806318160ddd146101b957806323b872dd146101cb5780632ff2e9dc146101de578063313ce567146101f0575b600080fd5b61018061037a565b60405161018d9190611174565b60405180910390f35b6101a96101a43660046111aa565b61040c565b604051901515815260200161018d565b6002545b60405190815260200161018d565b6101a96101d93660046111d4565b610426565b6101bd6a52b7d2dcc80cd2e400000081565b6040516012815260200161018d565b6101bd6b033b2e3c9fd0803ce800000081565b6101bd61044a565b610222610459565b005b6102226102323660046111aa565b61046b565b610222610245366004611210565b610538565b60055460ff166101a9565b6101bd610263366004611229565b6001600160a01b031660009081526020819052604090205490565b610222610579565b6102226102943660046111aa565b61058b565b6101bd6102a7366004611229565b6105a4565b6102226105c2565b6102bc6105d2565b60405161018d9796959493929190611244565b60055461010090046001600160a01b03166040516001600160a01b03909116815260200161018d565b610180610618565b6101a961030e3660046111aa565b610627565b6101bd610635565b6102226103293660046112da565b610656565b6101bd61033c36600461134d565b6001600160a01b03918216600090815260016020908152604080832093909416825291909152205490565b610222610375366004611229565b610790565b60606003805461038990611380565b80601f01602080910402602001604051908101604052809291908181526020018280546103b590611380565b80156104025780601f106103d757610100808354040283529160200191610402565b820191906000526020600020905b8154815290600101906020018083116103e557829003601f168201915b5050505050905090565b60003361041a8185856107ce565b60019150505b92915050565b6000336104348582856107e0565b61043f85858561085f565b506001949350505050565b60006104546108be565b905090565b6104616109e9565b610469610a1c565b565b6104736109e9565b6b033b2e3c9fd0803ce80000008161048a60025490565b61049491906113d0565b11156104e75760405162461bcd60e51b815260206004820152601860248201527f5550583a204d617820737570706c79206578636565646564000000000000000060448201526064015b60405180910390fd5b6104f18282610a6e565b816001600160a01b03167f3f2c9d57c068687834f0de942a9babb9e5acab57d516d3480a3c16ee165a42738260405161052c91815260200190565b60405180910390a25050565b61054181610aa4565b60405181815233907ffd38818f5291bf0bb3a2a48aadc06ba8757865d1dabd804585338aab3009dcb69060200160405180910390a250565b6105816109e9565b6104696000610aae565b6105968233836107e0565b6105a08282610b08565b5050565b6001600160a01b038116600090815260086020526040812054610420565b6105ca6109e9565b610469610b3e565b6000606080600080600060606105e6610b7b565b6105ee610ba8565b60408051600080825260208201909252600f60f81b9b939a50919850469750309650945092509050565b60606004805461038990611380565b60003361041a81858561085f565b600061064060025490565b610454906b033b2e3c9fd0803ce80000006113e3565b8342111561067a5760405163313c898160e11b8152600481018590526024016104de565b60007f6e71edae12b1b97f4d1f60370fef10105fa2faae0126114a169c64845d6126c98888886106c78c6001600160a01b0316600090815260086020526040902080546001810190915590565b6040805160208101969096526001600160a01b0394851690860152929091166060840152608083015260a082015260c0810186905260e001604051602081830303815290604052805190602001209050600061072282610bd5565b9050600061073282878787610c02565b9050896001600160a01b0316816001600160a01b031614610779576040516325c0072360e11b81526001600160a01b0380831660048301528b1660248201526044016104de565b6107848a8a8a6107ce565b50505050505050505050565b6107986109e9565b6001600160a01b0381166107c257604051631e4fbdf760e01b8152600060048201526024016104de565b6107cb81610aae565b50565b6107db8383836001610c30565b505050565b6001600160a01b03838116600090815260016020908152604080832093861683529290522054600019811015610859578181101561084a57604051637dc7a0d960e11b81526001600160a01b038416600482015260248101829052604481018390526064016104de565b61085984848484036000610c30565b50505050565b6001600160a01b03831661088957604051634b637e8f60e11b8152600060048201526024016104de565b6001600160a01b0382166108b35760405163ec442f0560e01b8152600060048201526024016104de565b6107db838383610d05565b6000306001600160a01b037f00000000000000000000000000000000000000000000000000000000000000001614801561091757507f000000000000000000000000000000000000000000000000000000000000000046145b1561094157507f000000000000000000000000000000000000000000000000000000000000000090565b610454604080517f8b73c3c69bb8fe3d512ecc4cf759cc79239f7b179b0ffacaa9a75d522b39400f60208201527f0000000000000000000000000000000000000000000000000000000000000000918101919091527f000000000000000000000000000000000000000000000000000000000000000060608201524660808201523060a082015260009060c00160405160208183030381529060405280519060200120905090565b6005546001600160a01b036101009091041633146104695760405163118cdaa760e01b81523360048201526024016104de565b610a24610d10565b6005805460ff191690557f5db9ee0a495bf2e6ff9c91a7834c1ba4fdd244a5e8aa4e537bd38aeae4b073aa335b6040516001600160a01b03909116815260200160405180910390a1565b6001600160a01b038216610a985760405163ec442f0560e01b8152600060048201526024016104de565b6105a060008383610d05565b6107cb3382610b08565b600580546001600160a01b03838116610100818102610100600160a81b031985161790945560405193909204169182907f8be0079c531659141344cd1fd0a4f28419497f9722a3daafe3b4186f6b6457e090600090a35050565b6001600160a01b038216610b3257604051634b637e8f60e11b8152600060048201526024016104de565b6105a082600083610d05565b610b46610d33565b6005805460ff191660011790557f62e78cea01bee320cd4e420270b5ea74000d11b0c9f74754ebdbfc544b05a258610a513390565b60606104547f00000000000000000000000000000000000000000000000000000000000000006006610d57565b60606104547f00000000000000000000000000000000000000000000000000000000000000006007610d57565b6000610420610be26108be565b8360405161190160f01b8152600281019290925260228201526042902090565b600080600080610c1488888888610e02565b925092509250610c248282610ed1565b50909695505050505050565b6001600160a01b038416610c5a5760405163e602df0560e01b8152600060048201526024016104de565b6001600160a01b038316610c8457604051634a1406b160e11b8152600060048201526024016104de565b6001600160a01b038085166000908152600160209081526040808320938716835292905220829055801561085957826001600160a01b0316846001600160a01b03167f8c5be1e5ebec7d5bd14f71427d1e84f3dd0314c0f7b2291e5b200ac8c7c3b92584604051610cf791815260200190565b60405180910390a350505050565b6107db838383610f8a565b60055460ff1661046957604051638dfc202b60e01b815260040160405180910390fd5b60055460ff16156104695760405163d93c066560e01b815260040160405180910390fd5b606060ff8314610d7157610d6a83610f9d565b9050610420565b818054610d7d90611380565b80601f0160208091040260200160405190810160405280929190818152602001828054610da990611380565b8015610df65780601f10610dcb57610100808354040283529160200191610df6565b820191906000526020600020905b815481529060010190602001808311610dd957829003601f168201915b50505050509050610420565b600080807f7fffffffffffffffffffffffffffffff5d576e7357a4501ddfe92f46681b20a0841115610e3d5750600091506003905082610ec7565b604080516000808252602082018084528a905260ff891692820192909252606081018790526080810186905260019060a0016020604051602081039080840390855afa158015610e91573d6000803e3d6000fd5b5050604051601f1901519150506001600160a01b038116610ebd57506000925060019150829050610ec7565b9250600091508190505b9450945094915050565b6000826003811115610ee557610ee56113f6565b03610eee575050565b6001826003811115610f0257610f026113f6565b03610f205760405163f645eedf60e01b815260040160405180910390fd5b6002826003811115610f3457610f346113f6565b03610f555760405163fce698f760e01b8152600481018290526024016104de565b6003826003811115610f6957610f696113f6565b036105a0576040516335e2f38360e21b8152600481018290526024016104de565b610f92610d33565b6107db838383610fdc565b60606000610faa83611106565b604080516020808252818301909252919250600091906020820181803683375050509182525060208101929092525090565b6001600160a01b038316611007578060026000828254610ffc91906113d0565b909155506110799050565b6001600160a01b0383166000908152602081905260409020548181101561105a5760405163391434e360e21b81526001600160a01b038516600482015260248101829052604481018390526064016104de565b6001600160a01b03841660009081526020819052604090209082900390555b6001600160a01b038216611095576002805482900390556110b4565b6001600160a01b03821660009081526020819052604090208054820190555b816001600160a01b0316836001600160a01b03167fddf252ad1be2c89b69c2b068fc378daa952ba7f163c4a11628f55a4df523b3ef836040516110f991815260200190565b60405180910390a3505050565b600060ff8216601f81111561042057604051632cd44ac360e21b815260040160405180910390fd5b6000815180845260005b8181101561115457602081850181015186830182015201611138565b506000602082860101526020601f19601f83011685010191505092915050565b602081526000611187602083018461112e565b9392505050565b80356001600160a01b03811681146111a557600080fd5b919050565b600080604083850312156111bd57600080fd5b6111c68361118e565b946020939093013593505050565b6000806000606084860312156111e957600080fd5b6111f28461118e565b92506112006020850161118e565b9150604084013590509250925092565b60006020828403121561122257600080fd5b5035919050565b60006020828403121561123b57600080fd5b6111878261118e565b60ff60f81b881681526000602060e08184015261126460e084018a61112e565b8381036040850152611276818a61112e565b606085018990526001600160a01b038816608086015260a0850187905284810360c0860152855180825283870192509083019060005b818110156112c8578351835292840192918401916001016112ac565b50909c9b505050505050505050505050565b600080600080600080600060e0888a0312156112f557600080fd5b6112fe8861118e565b965061130c6020890161118e565b95506040880135945060608801359350608088013560ff8116811461133057600080fd5b9699959850939692959460a0840135945060c09093013592915050565b6000806040838503121561136057600080fd5b6113698361118e565b91506113776020840161118e565b90509250929050565b600181811c9082168061139457607f821691505b6020821081036113b457634e487b7160e01b600052602260045260246000fd5b50919050565b634e487b7160e01b600052601160045260246000fd5b80820180821115610420576104206113ba565b81810381811115610420576104206113ba565b634e487b7160e01b600052602160045260246000fdfea2646970667358221220577b3fc9c4f324404afbb2b4e7b2cc80ad336cfe417314b0a0c9dacc92251fd064736f6c63430008140033",
  "linkReferences": {},
  "deployedLinkReferences": {}
}